:100000000C9434000C9451000C9451000C94510049
:100010000C9451000C9451000C9451000C9451001C
:100020000C9451000C9451000C9451000C9451000C
:100030000C9451000C9451000C9466000C945100E7
:100040000C9451000C9451000C94D9020C94A2020F
:100050000C9481020C9451000C9451000C945100AA
:100060000C9451000C94510011241FBECFEFD8E026
:10007000DEBFCDBF11E0A0E0B1E0EAEEF7E002C0E4
:1000800005900D92A232B107D9F711E0A2E2B1E0DA
:1000900001C01D92A936B107E1F70E947A030C94C2
:1000A000F3030C94000016BC82EC87BD10923D0156
:1000B000109223011092220182E084BD85E085BD6B
:1000C000EEE6F0E080818260808308951F920F92B7
:1000D0000FB60F9211248F939F9380913D018F5FF4
:1000E0008A3018F480933D010BC010923D0180913D
:1000F0002201909123010196909323018093220184
:100100009F918F910F900FBE0F901F901895CF93D6
:1001100090913F0180912501981709F4CDC09091ED
:100120003E019F3F91F090913E018913C5C00DC0E3
:100130002C2F2350223038F0EC2FF0E0E25CFE4F01
:1001400060810E944403CF5F03C0C0E080E090E084
:1001500020914001C21760F320914201492F552799
:1001600030E04217530709F0A7C0209141019927B9
:1001700030E08217930709F09FC0809143018134DA
:1001800079F480913F0180935401809125018093FF
:10019000550186E08093560181E68093590149C05C
:1001A00080914301873541F580913F01809354014F
:1001B00088E08093560187E780935901609145015B
:1001C0008091440190E00E94E50380914401809376
:1001D0005A018091450180935B0180914401811116
:1001E00006C080E090E00E94DD03809325018091AD
:1001F0002501809355011DC0809143018235F9F49A
:1002000080913F0180935401809125018093550195
:1002100088E08093560182E78093590180914401E0
:1002200080935A018091440190E00E94DD03809305
:100230005B01809152018068809352013DC08091A2
:100240004301863539F580913F01809354018091B7
:1002500025018093550180E18093560186E78093C4
:10026000590110925A0110925B0110925C01109298
:100270005D0110925E0110925F0184E58093600140
:100280008DE48093610180E5809362018CE480932A
:100290006301CFCF80914301883571F4F894A8951C
:1002A00084B7877F84BF80916000886180936000FD
:1002B00088E080936000FFCF809152018E7F809311
:1002C0005201CF910895CF9314BEA89588E10FB63F
:1002D000F89480936000109260000FBE1092240189
:1002E00080E090E00E94DD03982F91509E3F18F42B
:1002F0008093250108C083E08093250163E080E0BE
:1003000090E00E94E50383E090E00E94DD03C82FA7
:1003100082E090E00E94DD03382F20E02C2B211595
:10032000310511F421E030E02531310510F024E1F0
:1003300030E03093010120930001CF910895F894AB
:10034000882311F05A9801C05A9A90E020E00AC020
:10035000933040F0489921E0281721F05A9851989D
:1003600081E0089535E83A95F1F700009F5F9A30F3
:1003700079F780E00895CF93DF938091520186FD55
:1003800037C080915601853030F4809152018F73CF
:100390008093520191C0D091550180E090E0C0E07F
:1003A0000CC02C2F2350223038F0EC2FF0E0EC5A08
:1003B000FE4F60810E944403CF5F20915601C21717
:1003C00080F38093570190935801109253018FE06E
:1003D00097E20197F1F700C00000909153018091DE
:1003E0003C01992339F0882319F0815080933C0116
:1003F00081E063C0209168015A985998519AF89405
:100400009091C100977F9093C1007894109227013A
:100410009CE232E43A95F1F700C0489B12C091503B
:10042000C1F7982F920F8D2F8F702AE0929F800D29
:10043000112490E009C032E43A95F1F700C04899E0
:1004400002C051981CC09F5F9813F5CF80E00E94B6
:100450009F01811114C0C8E08D2F81700E949F01FF
:10046000D69581110CC0C150B9F781E00E949F015F
:10047000811105C081E00E949F01882319F08091BD
:100480003C01B1CF51988091C10088608093C10038
:100490005A9A1092260180915201806480935201F1
:1004A000809152018F7780935201F8948091C1001E
:1004B00080628093C100789480E0DF91CF910895AD
:1004C000529A5A98509851981092260110922701EA
:1004D0001092530126E020933C0120936801109272
:1004E000520185E190E09093C5008093C400109282
:1004F000C000E1ECF0E010822093C20088E9808324
:1005000008951F920F920FB60F9211248F93EF93BD
:10051000FF935A98E1ECF0E08081877B80838081B3
:1005200080688083809152018F7B8093520186E0A6
:1005300080933C01FF91EF918F910F900FBE0F9030
:100540001F9018951F920F920FB60F9211248F9340
:100550009F93EF93FF9380912601813029F480913E
:10056000C10080648093C10080912601843130F401
:100570009091260180915601981730F08091C1002A
:100580008F7D8093C1000CC080912601E82FF0E0A0
:10059000EC5AFE4F90819093C6008F5F80932601A6
:1005A000FF91EF919F918F910F900FBE0F901F9031
:1005B00018951F920F920FB60F9211242F933F930D
:1005C0008F939F93EF93FF9381E0809353018091EA
:1005D000C000887139F08091C60080932701109285
:1005E000270147C080912701E82FF0E09091C600D5
:1005F000E85DFE4F90838F5F8093270180912701F4
:10060000863080F19091270180912A01981720F47B
:1006100080912701843130F110922701809152019D
:1006200080FD20C080912A01853118F084E18093FB
:100630002A0120E00BC0822F90E0FC01E85DFE4F14
:100640003081FC01E25CFE4F30832F5F80912A01F4
:10065000281788F38091520181608093520182E0D3
:100660008093530180912701843118F083E18093B6
:100670002701FF91EF919F918F913F912F910F90C3
:100680000FBE0F901F901895292F26279295907FC7
:10069000382F32953F70932B8295807F22952F7053
:1006A00030E0F901EE5EFE4F40819427F901EE5FE4
:1006B000FE4F20818227292F229526279295907F11
:1006C000582F52955F70592B482F4295407F2F70BD
:1006D00030E0F901EE5EFE4F6081952F962780E0B5
:1006E000F901EE5FFE4F208142279C01240F311D4E
:1006F000C90108950E9463010E9453000E94600294
:100700007894DFEF17E003E58091520180FD0E94AD
:100710008700209122013091230180910001909166
:1007200001012817390708F443C080915201807CE9
:1007300009F03EC08091250180935501D09354016A
:1007400010935601009359018091240180935A011E
:100750008F5F8093240180915201806880935201C1
:10076000109223011092220123C08091520180FD3A
:100770000E9487000E94BB01811113C08091520129
:100780008F7780935201C0CF87E893E10197F1F70B
:1007900000C000008091520180FF04C00E948700C9
:1007A00001C0C5E1C15021F080915301823061F751
:1007B0008091520187FFA8CFD8CFF999FECF92BD83
:1007C00081BDF89A992780B50895262FF999FECF13
:1007D0001FBA92BD81BD20BD0FB6F894FA9AF99A5E
:0A07E0000FBE01960895F894FFCFB4
:1007EA000A0000010302070604050E0F0D0C090892
:1007FA000A0B00A0E04060C08020C0602080A000FA
:02080A0040E0CC
:00000001FF
