:100000000C9434000C9451000C9451000C94510049
:100010000C9451000C9451000C9451000C9451001C
:100020000C9451000C9451000C9451000C9451000C
:100030000C9451000C9451000C9464000C945100E9
:100040000C9451000C9451000C9440070C94090737
:100050000C94E8060C9451000C9451000C9451003F
:100060000C943B010C94510011241FBECFEFD8E03B
:10007000DEBFCDBF11E0A0E0B1E0E0E7F2E102C0F9
:1000800005900D92A032B107D9F711E0A0E2B1E0DE
:1000900001C01D92AD3AB107E1F70E94E1070C944F
:1000A00036090C94000016BC82EC87BD1092250125
:1000B0001092240182E084BD85E085BDEEE6F0E08B
:1000C00080818260808308951F920F920FB60F92F5
:1000D00011248F939F938091240190912501019683
:1000E00090932501809324019F918F910F900FBED3
:1000F0000F901F90189510922901109228010895D1
:10010000CF92DF92EF92FF920F931F93CF93DF93E3
:1001100000912E0110912F01209130013091310179
:10012000080F111D211D311DB901A801FAE0440F6E
:10013000551F661F771FFA95D1F7400F511F621F99
:10014000731F8A019B01A6E03695279517950795A1
:10015000AA95D1F7042715272627372700932E01C4
:1001600010932F012093300130933101882351F0F7
:100170008091320190E001966DE070E00E94EC0801
:10018000809332018091320181116CC0A9E0B0E00E
:10019000A90198010E94E1089B01AC01EBE0569592
:1001A000479537952795EA95D1F72627372748278A
:1001B0005927A1E0B0E80E94E1088B019C016093FF
:1001C0002E0170932F018093300190933101F090B4
:1001D0002D0190912C01F91221C06091330140E072
:1001E000E42FE60FF0E0842F8370E65AFE4F57E0CD
:1001F000859FC00111246801790104C0F694E79439
:10020000D794C7948A95D2F750815C2550834F5F6D
:10021000403131F7605F6093330124C0E0E0F0E0EB
:10022000CEE1D0E0892F90E0DC01A65ABE4FB901A3
:10023000A8010E2E04C076956795579547950A94A8
:10024000D2F74C930196BE010E94EC08982F389685
:10025000E831F10519F480932C0104C0F812E2CFC3
:10026000F0922C01DF91CF911F910F91FF90EF90B1
:10027000DF90CF9008951F920F920FB60F92112426
:100280002F933F938F939F93EF93FF938091B900A8
:10029000887F803309F480C080F4883161F130F4C4
:1002A0008830F9F0803109F077C01BC0803209F442
:1002B00073C0883209F070C027C0883409F46CC05C
:1002C00030F48833E1F1803409F066C03AC08835F3
:1002D00009F45AC0883F09F468C0803509F05CC051
:1002E00037C080918101882311F08AE401C08BE43A
:1002F0008093BB0045C0E0914F01F0915001808197
:100300008093BB0081E018C08091510190918101E0
:10031000891740F080917801811101C035C0109299
:1003200081010DC0E0914F01F0915001E80FF11DE6
:1003300090819093BB008F5F8093510121C085EE27
:1003400020C010925101809178018230C8F416C00B
:10035000809151019091BB00E0915801F0915901B9
:10036000E80FF11D90838F5F8093510190E001961B
:100370002091780130E08217930714F485E801C0DA
:1003800085EC8093BC0011C085ED8093BC00109279
:1003900021011092200109C085ED8093BC0081E00D
:1003A00090E09093210180932001FF91EF919F9124
:1003B0008F913F912F910F900FBE0F901F90189526
:1003C000811102C0442309F1E0912001F091210143
:1003D0003297D9F09091BC0094FD17C080938101B1
:1003E000409378017093500160934F01309359010D
:1003F0002093580182E090E09093210180932001A6
:1004000085EE8093BC0080E0089581E00895089512
:10041000089540919A01242F55E50CC0822F90E059
:10042000FC01E956FE4F30813527FC01E856FE4FAE
:1004300030832150263090F784E280939D014F5FF6
:1004400040939A01089520919A01215085E090E00F
:1004500045E50AC0FC010196DC01A856BE4F3C915F
:100460003427E856FE4F30838217A0F384E280934E
:100470009D0120939A010895CF92DF92EF92FF920F
:10048000E3E0F0E0F0932901E0932801E0912701F7
:10049000E0939901E0912601E0939801EEE0E0936A
:1004A0009A01E1E4E0939D01C92EDD24EE24FF24AE
:1004B000C0929E016C01EE24FF24C0929F01C72EC2
:1004C000D82EE92EFF24C092A0016093A101852FB0
:1004D0009927AA27BB278093A201CA01AA27BB2775
:1004E0008093A301BB27A52F942F832F8093A40172
:1004F0002093A5010E940902809196018068809353
:100500009601FF90EF90DF90CF9008958091960133
:1005100080FD0E94A3048091960187FF09C00E947C
:100520002206811105C0809196018F7780939601F4
:1005300008950E94860280912401909125012091C6
:10054000220130912301AC01421B530B433351056F
:1005500078F020912001309121012230310541F0C5
:1005600090932301809322010E9411030C94800038
:1005700008958091240190912501909353018093D7
:1005800052010EC00E949902809124019091250190
:100590002091520130915301821B930B0B9740F431
:1005A0008091200190912101029761F380E00895EC
:1005B00081E008951F93CF93DF9300D000D01F9266
:1005C000CDB7DEB7182F2C833D834B8369837A83A5
:1005D0000E94B9022C813D814B8169817A818823F7
:1005E00019F081E090E013C0812F0E94E001811199
:1005F000F8CF0E94B9028111F4CF81E090E0209100
:10060000200130912101232B11F480E090E08170D2
:100610000F900F900F900F900F90DF91CF911F913F
:100620000895CF93DF931F92CDB7DEB781E0898322
:1006300024E531E042E0BE016F5F7F4F0E94DA02A5
:10064000811105C081E090915401911101C080E0B9
:100650000F90DF91CF910895CF93DF931F92CDB785
:10066000DEB781E0898324E531E042E0BE016F5FBF
:100670007F4F0E94DA02882331F08FEF0E948000C2
:100680002FEF3FEF1BC0809154010E9480008091AA
:1006900055010E948000809125010E948000809178
:1006A00024010E94800086B50E9480008091540140
:1006B000382F3F7020E080915501282BC9010F9001
:1006C000DF91CF9108950E942C0340913401509105
:1006D000350141155105B1F4609124017091250156
:1006E0002091360130913701FB01E21BF30BE5301D
:1006F000F10510F480E808959C0170933701609330
:10070000360102C020E030E0C90184279527009718
:1007100089F322273327281B390B28233923222347
:1007200011F087E001C08FE0B9016F707F70672B17
:1007300009F08450B90163737373672B09F0825019
:10074000B90165757575672B09F08150B90164238E
:100750007523672B09F081952427352730933501C0
:100760002093340108951F93CF93DF9300D0CDB72A
:10077000DEB7182F69837A830E94B90269817A8172
:10078000811113C081E0809354011093550170933F
:1007900056016093570120E030E040E064E571E0ED
:1007A00084E00E94DA0280E001C081E00F900F90A7
:1007B000DF91CF911F9108951F93CF93DF931F92E5
:1007C000CDB7DEB7182F69830E94B9026981811104
:1007D00011C082E080935401111162E060935501D1
:1007E00020E030E040E064E571E082E00E94DA025F
:1007F00080E001C081E00F90DF91CF911F910895BB
:10080000CF938FEF8EBB85B988B98BB91092B900A1
:1008100082EF8093B8008093BA0085EC8093BC008F
:1008200014BEA89588E10FB6F894809360001092EA
:1008300060000FBE80E090E00E942009C82F8093E6
:10084000270181E090E00E94200980932601C15099
:10085000CE3F18F093E09093270181508E3F20F017
:10086000809127018093260110922901109228017E
:1008700060E080E0CF910C94DC0360E081E00E94B6
:10088000DC0368E572E080E20E94B30361E080E08F
:100890000C94DC0360E081E00E94DC036CE271E018
:1008A0008DE20E94B30361E081E00E94DC036CE210
:1008B00071E08CE10E94B30361E080E00C94DC0302
:1008C00060E080E00E94DC036CE271E080E20E9464
:1008D000B30361E080E00C94DC0360E081E00E94FF
:1008E000DC0368EE73E080E40E94B30361E080E023
:1008F0000E94DC0368EE73E080E40E94B30360E0D2
:1009000081E00E94DC0368EE73E080E40E94B303A0
:1009100061E080E00E94DC0368EE73E080E40E9406
:10092000B30360E081E00E94DC0368EE73E080E4E2
:100930000E94B30361E080E00E94DC0368EE73E094
:1009400080E40C94B303CF93809125010E94800032
:10095000809124010E94800086B50E9480009091C1
:10096000830180912701981709F43AC1909182017F
:100970009F3F91F090918201891332C10DC02C2FBD
:100980002350223038F0EC2FF0E0EE57FE4F60811C
:100990000E94AB07CF5F03C0C0E080E090E02091F1
:1009A0008401C21760F320918601492F552730E05A
:1009B0004217530709F014C120918501992730E0AF
:1009C0008217930709F00CC180918701813479F473
:1009D00080918301809398018091270180939901F0
:1009E00086E080939A0181E680939D012BC08091DF
:1009F0008701873569F5809183018093980188E0AC
:100A000080939A0187E780939D016091890180918D
:100A1000880190E00E9428098091880180939E01BE
:100A20008091890180939F0180918801811106C086
:100A300080E090E00E9420098093270180912701A7
:100A40008093990180919601806880939601C8C037
:100A5000809187018235D1F4809183018093980140
:100A6000809127018093990188E080939A0182E721
:100A700080939D018091880180939E0180918801DF
:100A800090E00E94200980939F01DCCF8091870134
:100A9000863551F5809183018093980180912701DB
:100AA0008093990181E180939A0186E780939D016B
:100AB00010929E0110929F011092A0011092A1012C
:100AC0001092A2011092A3018CE48093A4018FE400
:100AD0008093A50183E48093A6018BE48093A70112
:100AE00081E48093A801AECF80918701883571F4AD
:100AF000F894A89584B7877F84BF8091600088614F
:100B00008093600088E080936000FFCF8091870130
:100B1000843261F58091820190912701981326C05B
:100B20008091830190912601981320C00E94230296
:100B300080918701813609F053C0809128019091FE
:100B40002901039771F480918801813019F481E0C3
:100B500090E002C082E090E0909329018093280108
:100B60003FC010922901109228013AC0809187015C
:100B70008135B1F580918801833039F128F48130D5
:100B800049F0823069F515C0853029F108F18630C9
:100B900039F524C080918A019091890161E0811129
:100BA00001C060E081E0911101C080E00E94DC039F
:100BB00017C020918A0190918B0180918901722F39
:100BC00060E0692B0E94B3030BC00E946D0408C053
:100BD0000E94600405C00E943D0402C00E944A04B5
:100BE000809196018E7F80939601CF9108950E9407
:100BF000630387FD09C020912401309125013093C2
:100C00002B0120932A01089580E80895F894882301
:100C100011F05A9801C05A9A90E020E00AC093302F
:100C200040F0489921E0281721F05A98519881E026
:100C3000089535E83A95F1F700009F5F9A3079F70B
:100C400080E00895CF93DF938091960186FD37C0B1
:100C500080919A01853030F4809196018F73809352
:100C6000960191C0D091990180E090E0C0E00CC065
:100C70002C2F2350223038F0EC2FF0E0E856FE4FB6
:100C800060810E94AB07CF5F20919A01C21780F369
:100C900080939B0190939C01109297018FE097E2C3
:100CA0000197F1F700C000009091970180914E01EB
:100CB000992339F0882319F0815080934E0181E007
:100CC00063C02091AC015A985998519AF894909128
:100CD000C100977F9093C1007894109239019CE2F3
:100CE00032E43A95F1F700C0489B12C09150C1F729
:100CF000982F920F8D2F8F702AE0929F800D1124D4
:100D000090E009C032E43A95F1F700C0489902C07A
:100D100051981CC09F5F9813F5CF80E00E94060693
:100D2000811114C0C8E08D2F81700E940606D695EF
:100D300081110CC0C150B9F781E00E9406068111F3
:100D400005C081E00E940606882319F080914E01BB
:100D5000B1CF51988091C10088608093C1005A9AA8
:100D60001092380180919601806480939601809161
:100D700096018F7780939601F8948091C1008062EC
:100D80008093C100789480E0DF91CF910895529ACA
:100D90005A98509851981092380110923901109237
:100DA000970126E020934E012093AC01109296010A
:100DB00085E190E09093C5008093C4001092C0003C
:100DC000E1ECF0E010822093C20088E9808308956E
:100DD0001F920F920FB60F9211248F93EF93FF93F0
:100DE0005A98E1ECF0E08081877B80838081806885
:100DF0008083809196018F7B8093960186E080931B
:100E00004E01FF91EF918F910F900FBE0F901F90A9
:100E100018951F920F920FB60F9211248F939F93E4
:100E2000EF93FF9380913801813029F48091C100C4
:100E300080648093C10080913801843130F49091B6
:100E4000380180919A01981730F08091C1008F7D10
:100E50008093C1000CC080913801E82FF0E0E85683
:100E6000FE4F90819093C6008F5F80933801FF9171
:100E7000EF919F918F910F900FBE0F901F9018953B
:100E80001F920F920FB60F9211242F933F938F93BF
:100E90009F93EF93FF9381E0809397018091C0002F
:100EA000887139F08091C600809339011092390120
:100EB00047C080913901E82FF0E09091C600E65CD0
:100EC000FE4F90838F5F8093390180913901863086
:100ED00080F19091390180913C01981720F4809124
:100EE0003901843130F1109239018091960180FDF1
:100EF00020C080913C01853118F084E180933C0151
:100F000020E00BC0822F90E0FC01E65CFE4F3081B8
:100F1000FC01EE57FE4F30832F5F80913C01281774
:100F200088F38091960181608093960182E080939E
:100F3000970180913901843118F083E18093390160
:100F4000FF91EF919F918F913F912F910F900FBE45
:100F50000F901F901895292F26279295907F382F54
:100F600032953F70932B8295807F22952F7030E0D1
:100F7000F901E05FFE4F40819427F901E050FF4FF7
:100F800020818227292F229526279295907F582FFE
:100F900052955F70592B482F4295407F2F7030E05B
:100FA000F901E05FFE4F6081952F962780E0F901FF
:100FB000E050FF4F208142279C01240F311DC901C1
:100FC0000895CF93DF931F92CDB7DEB70E94000440
:100FD0000E9453000E94C706789461E080E00E945E
:100FE000DC030E94F70587FDF8CF8A301CF00E94D1
:100FF0006D04F3CF89830E9460048981992787FD5E
:101000009095A92FB92F8093790190937A01A0939D
:101010007B01B0937C018091240190912501209166
:101020002A0130912B01821B930B8C329140A8F244
:101030000E94F70587FDFCCF8A3081F1409179014C
:1010400050917A0160917B0170917C014115514E64
:10105000654F754060F689830E9460048981C82EBF
:10106000DD24C7FCD094ED2CFD2C2091790130912A
:101070007A0140917B0150917C01AAE0B0E00E948E
:10108000E108C60ED71EE81EF91EC0927901D09263
:101090007A01E0927B01F0927C01BDCF0E943D0479
:1010A00010927D0110927E0110927F0110928001BA
:1010B000809124019091250120912A0130912B01EA
:1010C000821B930B8C32914008F487CF0E94F70566
:1010D00087FDFCCF8A3019F189830E9460048981E1
:1010E000C82EDD24C7FCD094ED2CFD2C20917D0171
:1010F00030917E0140917F0150918001AAE0B0E0E3
:101100000E94E108C60ED71EE81EF91EC0927D019E
:10111000D0927E01E0927F01F0928001C9CF0E94BF
:101120003D0420917D0130917E0140917F015091DD
:1011300080016091790170917A0180917B01909199
:101140007C010E943C0216C00E94990280912401F9
:101150009091250120912A0130912B01821B930B44
:10116000893C910538F00E946D041092290110927B
:10117000280133CF80912801909129018330910576
:1011800019F3019709F033CF809124019091250143
:1011900090932B0180932A010E944A0402C00E946E
:1011A0009902809124019091250120912A0130918A
:1011B0002B01821B930B843F914088F30E943D04D6
:1011C0000CCF0E940009A59F900DB49F900DA49F85
:1011D000800D911D1124089597FB072E16F400949D
:1011E00007D077FD09D00E940C0907FC05D03EF41A
:1011F000909581959F4F0895709561957F4F0895C3
:10120000A29FB001B39FC001A39F01D0B29F700DF8
:10121000811D1124911D0895AA1BBB1B51E107C01C
:10122000AA1FBB1FA617B70710F0A61BB70B881F76
:10123000991F5A95A9F780959095BC01CD01089505
:10124000F999FECF92BD81BDF89A992780B508958E
:10125000262FF999FECF1FBA92BD81BD20BD0FB6D2
:10126000F894FA9AF99A0FBE01960895F894FFCF70
:1012700000010302070604050E0F0D0C09080A0BF6
:1012800000A0E04060C08020C0602080A00040E05E
:00000001FF
