:100000000C9434000C9451000C9451000C94510049
:100010000C9451000C9451000C9451000C9451001C
:100020000C9451000C9451000C9451000C9451000C
:100030000C9451000C9451000C9464000C945100E9
:100040000C9451000C9451000C943D060C9406063F
:100050000C94E5050C9451000C9451000C94510043
:100060000C947F000C94510011241FBECFEFD8E0F8
:10007000DEBFCDBF11E0A0E0B1E0E8EAF0E102C0F0
:1000800005900D92A032B107D9F711E0A0E2B1E0DE
:1000900001C01D92A63AB107E1F70E94DE060C945A
:1000A00052080C94000016BC82EC87BD109225010A
:1000B0001092240182E084BD85E085BDEEE6F0E08B
:1000C00080818260808308951F920F920FB60F92F5
:1000D00011248F939F938091240190912501019683
:1000E00090932501809324019F918F910F900FBED3
:1000F0000F901F90189510922A01089508951F924D
:100100000F920FB60F9211242F933F938F939F93CB
:10011000EF93FF938091B900887F803309F480C00A
:1001200080F4883161F130F48830F9F0803109F0E1
:1001300077C01BC0803209F473C0883209F070C0E8
:1001400027C0883409F46CC030F48833E1F180347E
:1001500009F066C03AC0883509F45AC0883F09F4EE
:1001600068C0803509F05CC037C080917A0188236F
:1001700011F08AE401C08BE48093BB0045C0E0919C
:100180004801F091490180818093BB0081E018C053
:1001900080914A0190917A01891740F08091710114
:1001A000811101C035C010927A010DC0E091480163
:1001B000F0914901E80FF11D90819093BB008F5F92
:1001C00080934A0121C085EE20C010924A0180919F
:1001D00071018230C8F416C080914A019091BB0031
:1001E000E0915101F0915201E80FF11D90838F5F72
:1001F00080934A0190E001962091710130E08217CE
:10020000930714F485E801C085EC8093BC0011C00D
:1002100085ED8093BC00109221011092200109C04D
:1002200085ED8093BC0081E090E090932101809364
:100230002001FF91EF919F918F913F912F910F900E
:100240000FBE0F901F901895811102C0442309F131
:10025000E0912001F09121013297D9F09091BC00FA
:1002600094FD17C080937A01409371017093490106
:1002700060934801309352012093510182E090E055
:10028000909321018093200185EE8093BC0080E053
:10029000089581E008950895089530919301232FE2
:1002A0000BC0822F90E0FC01E057FE4F4081FC0123
:1002B000EF56FE4F40832150263098F784E280931A
:1002C00096013F5F3093930108952091930121504F
:1002D00085E090E009C0FC010196DC01AF56BE4FFD
:1002E0003C91EF56FE4F30838217A8F384E280934F
:1002F0009601209393010895CF938FEF8EBB85B91C
:1003000088B98BB91092B90082EF8093B8008093BE
:10031000BA0085EC8093BC0014BEA89588E10FB6A6
:10032000F89480936000109260000FBE80E090E02F
:100330000E943C08C82F8093290181E090E00E9430
:100340003C0880932801C150CE3F18F093E0909371
:10035000290181508E3F20F080912901809328014E
:10036000CF910895CF92DF92EF92FF92E1E0E09378
:100370002A01E0912901E0939201E0912801E093A4
:100380009101EEE0E0939301E1E4E0939601C92E40
:10039000DD24EE24FF24C09297016C01EE24FF249B
:1003A000C0929801C72ED82EE92EFF24C092990141
:1003B00060939A01852F9927AA27BB2780939B01D9
:1003C000CA01AA27BB2780939C01BB27A52F942F86
:1003D000832F80939D0120939E010E944D01809167
:1003E0008F01806880938F01FF90EF90DF90CF9016
:1003F000089580918F0180FD0E94AF0380918F014D
:1004000087FF09C00E941F05811105C080918F01DF
:100410008F7780938F0108950E94F90180912401C4
:10042000909125012091220130912301AC01421BC2
:10043000530B4333510568F0209120013091210185
:100440002230310531F090932301809322010C94E6
:1004500082020895809124019091250190934C018E
:1004600080934B010EC00E940C0280912401909158
:10047000250120914B0130914C01821B930B0B976E
:1004800040F48091200190912101029761F380E076
:10049000089581E008951F93CF93DF9300D000D09B
:1004A0001F92CDB7DEB7182F2C833D834B83698312
:1004B0007A830E942A022C813D814B8169817A8155
:1004C000882319F081E090E013C0812F0E9424015D
:1004D0008111F8CF0E942A028111F4CF81E090E0CF
:1004E0002091200130912101232B11F480E090E034
:1004F00081700F900F900F900F900F90DF91CF9120
:100500001F910895CF93DF931F92CDB7DEB781E09F
:1005100089832DE431E042E0BE016F5F7F4F0E948E
:100520004B02811105C081E090914D01911101C0F4
:1005300080E00F90DF91CF910895CF93DF931F92CA
:10054000CDB7DEB781E089832DE431E042E0BE0122
:100550006F5F7F4F0E944B0281110AC086B5809168
:100560004D01382F3F7020E080914E01282B02C0B2
:100570002FEF3FEFC9010F90DF91CF9108950E94B7
:100580009D02409126015091270141155105B1F47A
:10059000609124017091250120912F01309130014B
:1005A000FB01E21BF30BE530F10510F480E0089548
:1005B0009C017093300160932F0102C020E030E075
:1005C000C90184279527009789F322273327281B01
:1005D000390B28233923222311F088E001C080E160
:1005E000B9016F707F70672B09F08450B901637394
:1005F0007373672B09F08250B90165757575672BA8
:1006000009F08150B90164237523672B09F08195A6
:1006100024273527309327012093260108951F931F
:10062000CF93DF9300D0CDB7DEB7182F69837A83DD
:100630000E942A0269817A81811113C081E080932E
:100640004D0110934E0170934F016093500120E0D3
:1006500030E040E06DE471E084E00E944B0280E015
:1006600001C081E00F900F90DF91CF911F9108950D
:100670001F93CF93DF931F92CDB7DEB7182F6983F7
:100680000E942A026981811111C082E080934D018C
:10069000111162E060934E0120E030E040E06DE433
:1006A00071E082E00E944B0280E001C081E00F9087
:1006B000DF91CF911F91089560E081E00E9438039F
:1006C00068E572E080E20E940F0361E080E00C9434
:1006D000380360E081E00E9438036CE271E08DE253
:1006E0000E940F0361E081E00E9438036CE271E038
:1006F0008CE10E940F0361E080E00C94380360E01D
:1007000080E00E9438036CE271E081E10E940F03F7
:1007100061E080E00C9438030F931F93CF93DF9335
:100720008C01C0E0D0E013C060E081E00E9438039B
:1007300068EE73E08DE20E940F0361E080E00E94AA
:10074000380368EE73E080E40E940F032196C0171F
:10075000D10754F3DF91CF911F910F910895CF935B
:1007600086B590917C0180912901981709F432C1D6
:1007700090917B019F3F91F090917B0189132AC159
:100780000DC02C2F2350223038F0EC2FF0E0E5582C
:10079000FE4F60810E94A806CF5F03C0C0E080E0EA
:1007A00090E020917D01C21760F320917F01492FD5
:1007B000552730E04217530709F00CC120917E0104
:1007C000992730E08217930709F004C180918001D6
:1007D000813479F480917C01809391018091290189
:1007E0008093920186E08093930181E68093960145
:1007F0002BC080918001873569F580917C018093C1
:10080000910188E08093930187E78093960160913E
:1008100082018091810190E00E94440880918101D1
:10082000809397018091820180939801809181014A
:10083000811106C080E090E00E943C08809329016D
:10084000809129018093920180918F01806880932B
:100850008F01C0C0809180018235D1F480917C01EC
:1008600080939101809129018093920188E0809387
:10087000930182E780939601809181018093970193
:100880008091810190E00E943C0880939801DCCF28
:1008900080918001863551F580917C018093910192
:1008A000809129018093920181E18093930186E7F1
:1008B00080939601109297011092980110929901DD
:1008C00010929A0110929B0110929C018CE48093EB
:1008D0009D018FE480939E0183E480939F018BE4CC
:1008E0008093A00181E48093A101AECF809180012B
:1008F000883571F4F894A89584B7877F84BF809178
:10090000600088618093600088E080936000FFCF82
:1009100080918001843209F580917B0190912901B9
:1009200098131BC080917C0190912801981315C0E9
:100930000E94650180918001813609F04BC0809151
:100940002A01813039F4809181018C718260809319
:100950002A0140C010922A013DC08091800181355A
:10096000C9F580918101833039F128F4813049F053
:10097000823081F515C0853041F120F1863051F586
:1009800027C0809183019091820161E0811101C0B3
:1009900060E081E0911101C080E00E9438031AC03C
:1009A000209183019091840180918201722F60E0F7
:1009B000692B0E940F030EC08091820190E00E947B
:1009C0008C0308C00E947F0305C00E945C0302C024
:1009D0000E94690380918F018E7F80938F01CF9158
:1009E00008950E94BF02181664F4209124013091EA
:1009F000250130932C0120932B018A3019F480E0DB
:100A000008958FEF0895F894882311F05A9801C043
:100A10005A9A90E020E00AC0933040F0489921E0D3
:100A2000281721F05A98519881E0089535E83A95B1
:100A3000F1F700009F5F9A3079F780E00895CF9337
:100A4000DF9380918F0186FD37C0809193018530BF
:100A500030F480918F018F7380938F0191C0D0917A
:100A6000920180E090E0C0E00CC02C2F2350223097
:100A700038F0EC2FF0E0EF56FE4F60810E94A806A0
:100A8000CF5F20919301C21780F3809394019093DC
:100A90009501109290018FE097E20197F1F700C065
:100AA00000009091900180914701992339F08823AB
:100AB00019F081508093470181E063C02091A50126
:100AC0005A985998519AF8949091C100977F9093B1
:100AD000C1007894109232019CE232E43A95F1F729
:100AE00000C0489B12C09150C1F7982F920F8D2FD4
:100AF0008F702AE0929F800D112490E009C032E4AB
:100B00003A95F1F700C0489902C051981CC09F5F08
:100B10009813F5CF80E00E940305811114C0C8E04E
:100B20008D2F81700E940305D69581110CC0C15094
:100B3000B9F781E00E940305811105C081E00E94A0
:100B40000305882319F080914701B1CF5198809116
:100B5000C10088608093C1005A9A1092310180913F
:100B60008F01806480938F0180918F018F778093B4
:100B70008F01F8948091C10080628093C1007894C5
:100B800080E0DF91CF910895529A5A9850985198E9
:100B900010923101109232011092900126E02093C0
:100BA00047012093A50110928F0185E190E0909379
:100BB000C5008093C4001092C000E1ECF0E0108208
:100BC0002093C20088E9808308951F920F920FB688
:100BD0000F9211248F93EF93FF935A98E1ECF0E07A
:100BE0008081877B808380818068808380918F0172
:100BF0008F7B80938F0186E080934701FF91EF9177
:100C00008F910F900FBE0F901F9018951F920F920B
:100C10000FB60F9211248F939F93EF93FF938091C0
:100C20003101813029F48091C10080648093C1003A
:100C300080913101843130F49091310180919301A0
:100C4000981730F08091C1008F7D8093C1000CC057
:100C500080913101E82FF0E0EF56FE4F90819093A4
:100C6000C6008F5F80933101FF91EF919F918F912B
:100C70000F900FBE0F901F9018951F920F920FB6F6
:100C80000F9211242F933F938F939F93EF93FF9392
:100C900081E0809390018091C000887139F080914B
:100CA000C600809332011092320147C08091320118
:100CB000E82FF0E09091C600ED5CFE4F90838F5FCF
:100CC0008093320180913201863080F1909132011F
:100CD00080913501981720F480913201843130F1F0
:100CE0001092320180918F0180FD20C080913501EA
:100CF000853118F084E18093350120E00BC0822F0C
:100D000090E0FC01ED5CFE4F3081FC01E558FE4FA8
:100D100030832F5F80913501281788F380918F01F0
:100D2000816080938F0182E08093900180913201F5
:100D3000843118F083E180933201FF91EF919F910C
:100D40008F913F912F910F900FBE0F901F9018958C
:100D5000292F26279295907F382F32953F70932B1D
:100D60008295807F22952F7030E0F901E05FFE4F81
:100D700040819427F901E050FF4F20818227292FDD
:100D8000229526279295907F582F52955F70592B68
:100D9000482F4295407F2F7030E0F901E05FFE4F11
:100DA0006081952F962780E0F901E050FF4F208168
:100DB00042279C01240F311DC9010895CF93DF9371
:100DC0001F92CDB7DEB70E947C010E9453000E94A3
:100DD000C405789410922A0160E080E00E943803F4
:100DE0004AE0A42EB12C61E080E00E9438030E940A
:100DF000F10487FDF8CF8A302CF081E090E00E946A
:100E00008C03F1CF89830E947F038981992787FD15
:100E10009095A92FB92F8093720190937301A0939D
:100E20007401B09375018091240190912501209166
:100E30002B0130912C01821B930B8C32914098F244
:100E40000E94F10487FDFCCF8B3081F1409172014B
:100E50005091730160917401709175014115514E6B
:100E6000654F754050F689830E947F038981C82EA3
:100E7000DD24C7FCD094ED2CFD2C20917201309123
:100E800073014091740150917501AAE0B0E00E9495
:100E90002508C60ED71EE81EF91EC0927201D09218
:100EA0007301E0927401F0927501BDCF0E945C0362
:100EB00010927601109277011092780110927901C8
:100EC000809124019091250120912B0130912C01DA
:100ED000821B930B8C32914008F485CF0E94F10461
:100EE00087FDFCCF8B3019F189830E947F038981B4
:100EF000C82EDD24C7FCD094ED2CFD2C209176016A
:100F0000309177014091780150917901AAE0B0E0E9
:100F10000E942508C60ED71EE81EF91EC092760153
:100F2000D0927701E0927801F0927901C9CF0E94C6
:100F30005C032091760130917701409178015091C6
:100F400079016091720170917301809174019091A7
:100F500075010E94B20180912A0180FF07C084E0E0
:100F600090E00E948C0310922A013DCF80912401D1
:100F70009091250190932C0180932B010E9469038D
:100F800011E052C00E940C020E94BF02882311F09F
:100F9000111105C060E080E00E94380345C01130A7
:100FA00021F48A3009F03FC03AC0123019F4863F6C
:100FB000D1F537C01A3054F4982F9150993010F46D
:100FC000182F16C08A3079F51AE02EC0143194F427
:100FD000482F552747FD50959501211B310917FDD5
:100FE00033954217530721F0863FE9F41A30D9F4BC
:100FF000165F1AC01E31C4F4853FA9F40E945C0339
:101000000E94690361E081E00E943803809124011D
:101010009091250190932C0180932B01E4CE12E056
:1010200003C013E001C010E08091240190912501DC
:1010300020912B0130912C01821B930B843F914016
:1010400008F4A0CF0E945C03CECE0E943008A59F7A
:10105000900DB49F900DA49F800D911D11240895B3
:10106000A29FB001B39FC001A39F01D0B29F700D9A
:10107000811D1124911D0895F999FECF92BD81BD66
:10108000F89A992780B50895262FF999FECF1FBAAF
:1010900092BD81BD20BD0FB6F894FA9AF99A0FBEA1
:0810A00001960895F894FFCFBA
:1010A80000010302070604050E0F0D0C09080A0BC0
:1010B80000A0E04060C08020C0602080A00040E028
:00000001FF
