:1070000006C0BDC14AC132C044C12EC0CDC1112489
:107010001FBECFEFD8E0DEBFCDBF11E0A0E0B1E0F2
:10702000E8E1FEE702C005900D92A233B107D9F75F
:1070300014E0A2E3B1E001C01D92AF37B107E1F760
:107040006ED2E8C60000000044C41FC1B8C40AC024
:107050009CC41DC74D52427573426F6F744C6F6173
:10706000646572004EE003C04CE001C04AE02F921C
:107070003F924F925F926F927F928F929F92AF92C8
:10708000BF92CF92DF92EF92FF920F931F93CF9315
:10709000DF938F939F93DB01FC01842FE894819011
:1070A0009190A190B190C190D190E190F190019117
:1070B00011912191319141915191619171919BE196
:1070C000FFE70D9080240D9090240D90A0240D904A
:1070D000B0240D90C0240D90D0240D90E0240D908C
:1070E000F0240D9000250D9010250D9020250D9079
:1070F00030250D9040250D9050250D9060250D9068
:1071000070252EF5FF91EF9181929192A192B1920B
:10711000C192D192E192F192019311932193319313
:107120004193519361937193DF91CF911F910F918F
:10713000FF90EF90DF90CF90BF90AF909F908F9097
:107140007F906F905F904F903F902F9008958A9519
:1071500009F46894E82D8490EC2DC490E02F0491FC
:10716000E42F4491E92D2490ED2D9490E12FD490BB
:10717000E52F1491522DEA2D2490EE2D3490E22F1C
:10718000A490E62FE490222D632DEB2D2490E72F81
:10719000B490E32F7491EF2D3491F22C0EF491CF33
:1071A0000A2C0B24402C282C89240824880C08F451
:1071B000892680248224392C3A24330C08F4392679
:1071C00030249324440C08F449264024A4242B247E
:1071D000220C08F429262024B2240E2C0F24402C43
:1071E0002C2CCD240C24CC0C08F4C926C024C22499
:1071F0003D2C3E24330C08F439263024D324440C8F
:1072000008F449264024E4242F24220C08F42926DB
:107210002024F224022E0326402C202E01270026B3
:10722000000F08F4092700250225312E3226330CE1
:1072300008F4392630241325440C08F44926402448
:1072400024252326220C08F4292620243225062E64
:107250000726402C242E45270426440F08F44927EE
:1072600040254225352E3626330C08F439263024A5
:107270005325440C08F44926402464252726220C73
:1072800008F42926202472251CCFAB0171E060E0B0
:1072900007C0AB0170E060EC03C0AB01772760E88A
:1072A000EF92FF920F931F93CF93DF93FA01EA01BE
:1072B000DC017695679566956695262F0D9001926F
:1072C0002A95E1F76695669563FB362F762F795FF1
:1072D000770F770FDF011497262FE0E0FFE77F019C
:1072E00011E04D915D918D919D913217B1F05EF558
:1072F000022F0770043039F5F701E40FF11D4491B6
:10730000F701E50FF11D5491F701E80FF11D84918C
:10731000F701E90FF11D949116C0360FF701E40F44
:10732000F11D0491F701E50FF11D4491F701E80FFC
:10733000F11D5491F701E90FF11D8491902F412720
:10734000110F08F41BE1FD01099004260192099038
:1073500005260192099008260192099009260192BA
:107360002395271709F0BDCFE894DF91CF911F91A6
:107370000F91FF90EF900895FC018491089581E0B2
:107380000895EEEFFFE6259134912F3E8FE6380702
:1073900010F020E030E0C901089540E150E06EEEC9
:1073A0007FE683EE93E015C53F924F925F926F9216
:1073B0007F928F929F92AF92BF92CF92DF92EF9285
:1073C000FF920F931F93CF93DF93CDB7DEB7C05BD0
:1073D000D1090FB6F894DEBF0FBECDBF7C01CB0143
:1073E0006A014901AA24A394B12CAC0EBD1EB501BB
:1073F00054DF80E1F70111928A95E9F7F701D18214
:10740000C082B501C70132DE5A2C4B2C1EC0F301DD
:107410003080C501800F911FF40109958325F30188
:1074200081933F01FFEFAF1ABF0A81E0C81AD1086C
:10743000E0E1AE16B10419F0C114D10441F7005FC8
:107440001F4F652D742DC70111DEC114D10421F029
:107450003701A12CB12CDBCFC055DF4F0FB6F8940C
:10746000DEBF0FBECDBFDF91CF911F910F91FF9077
:10747000EF90DF90CF90BF90AF909F908F907F90D4
:107480006F905F904F903F9008950F931F93CF930D
:10749000DF93CDB7DEB7A2970FB6F894DEBF0FBE6D
:1074A000CDBF40E150E064E570E7CE01019691D494
:1074B00068DF89A39AA371DF89A1E82F9AA1F92F28
:1074C00006C024912F3F11F081E01EC03196EE3EA0
:1074D0002FE6F207B0F300E010E02CEB39E3AC014B
:1074E000BE016F5F7F4FCE0141965EDFFE01719658
:1074F000A3EEB3E0CE01819631912D913213E4CF0A
:10750000E817F907C9F780E0A2960FB6F894DEBF36
:107510000FBECDBFDF91CF911F910F910895CF93F3
:10752000DF93CDB7DEB7C854D1090FB6F894DEBFEC
:107530000FBECDBF8FEF8BB988B985B981E085BF0C
:1075400082E085BFA895809160008861809360008B
:107550008EE080936000A89580E090E053D4809303
:10756000E20381508E3F18F083E08093E20348E00D
:1075700060E671E089E794E055D348E162E072E0AB
:1075800083E794E04FD352D278948FEF8E8BBB2455
:10759000B3947E012BE1E20EF11CAA24A39499245A
:1075A00093944AC0A89583E794E052D3882309F4C2
:1075B00051C120E044E1BE016B5E7F4F83E794E060
:1075C00096D3882379F39091E2038E89891751F33A
:1075D0008D898F3F89F09813E5CF0EC0272D23505A
:1075E000223040F0E5E1F0E0EC0FFD1FE70DF11D6A
:1075F0006081E2D2739403C0712C80E090E06F89C7
:10760000761660F3492F5527298D30E0421753072E
:1076100049F69927288D30E08217930709F0C2CFE9
:107620008A8D813429F481E68E8386E08B8318C0AD
:10763000813239F5A092320188E08B8380E48E8319
:10764000E1E0809100028F3F09F0E0E0EF83F0E09D
:10765000E050FE4F808188876E013FE3C30ED11C4E
:107660008E8989838091E2038A834B81BE016F5F9B
:107670007F4F89E794E0FCD236E6832E01E010E0EC
:1076800091CF2091E2039D8929138CCF8434C1F5D9
:10769000643109F087CF7FA04AE0471508F482CF14
:1076A00024EF372D2303C00111248D384FEF9407A9
:1076B0001CF480589F4F02C08CE090E04CE0749E18
:1076C000900111242D503C4FAC01B701C9018AD360
:1076D000E72DE695E695E695F0E0E050FE4F872D24
:1076E0008770980102C0220F331F8A95E2F7C90103
:1076F0009081982B908388A5882309F453CF9CCF41
:107700008634A9F510920002109201028E82673031
:1077100041F46B8D40E850E070E083EF93E06BD371
:1077200084CF6A3009F03ECF6B8D7C8D4D8D8E8D70
:10773000813808F080E8E42FF0E020E830E0281BF2
:1077400031092E173F0714F440E8481BE42FF0E0FE
:1077500020E030E7261B370B2E173F0710F4462F8B
:10776000419590E050E08D509C4F33D35ECF8332F3
:1077700061F4683009F016CF6B8D7C8D80E090E06D
:1077800043EF53E084D384E24FCF833589F584E11E
:107790008B8383E78E8379DE8F83F3DD88879987F8
:1077A000E3EEF3E0DE011A9621912D9333E0E83EFB
:1077B000F307D1F720E1E1E0F1E0DE0199960190D5
:1077C0000D922A95E1F700E010E02CEB39E3AC01D3
:1077D000BE01675D7F4FCE01C996E6DDFE01F996D9
:1077E000DE011F9681918D93EC15FD05D9F738CFF9
:1077F0008635A9F42FE02B8386E78E8381E28F8381
:10780000988680E890E09A87898780E090E79C8757
:107810008B878EE18D8785E98E872F8721CF8835ED
:1078200009F0C0CE673041F48B8D882329F0109287
:10783000320110920001B6CEF894A89584B7877FE4
:1078400084BF8091600088618093600088E08093AD
:107850006000FFCF89E794E0FBD1882311F004D1C9
:10786000A1CE80910001882351F0815080930001C6
:107870008FE493EC0197F1F700C0000093CE809164
:10788000320181118FCE01DE81118CCEF894B5BE0C
:1078900015BE0C94000086CEF894882311F05A98F7
:1078A00001C05A9A90E020E00BC0933048F048990C
:1078B00021E0281729F05A985198789481E008958A
:1078C00035E83A95F1F700009F5F9A3071F780E054
:1078D00008951F920F920FB60F9211242F933F938A
:1078E0004F935F936F937F938F939F93AF93BF93C8
:1078F000EF93FF9381E0809349018091C0008871EC
:1079000039F08091C60080934801109248012CC044
:10791000809148019091C600E82FF0E0E65BFE4FB1
:1079200090838F5F8093480180914801863098F062
:107930004091480180914C0148130DC010924801BC
:10794000453108F044E16AE471E083E794E090D1C6
:107950001092490109C080914801853128F0809139
:107960004801815080934801FF91EF91BF91AF9101
:107970009F918F917F916F915F914F913F912F9147
:107980000F900FBE0F901F9018951F920F920FB679
:107990000F9211248F93EF93FF935A98E1ECF0E04C
:1079A000808187718068808386E080935E01FF918B
:1079B000EF918F910F900FBE0F901F9018951F920F
:1079C0000F920FB60F9211248F939F93EF93FF9313
:1079D00080913301E82FF0E0EC5CFE4F90819093B2
:1079E000C6008F5F8093330180913301843130F47E
:1079F000909136018091330198130FC08091C0009F
:107A000080648093C0008091C1008F7D8093C1000D
:107A10008091C10080648093C100FF91EF919F919C
:107A20008F910F900FBE0F901F901895529A5A98F1
:107A30008AB18C7F8AB9109233011092490126E0F5
:107A400020935E0120935F0185E190E09093C50053
:107A50008093C4001092C000E1ECF0E0108220930B
:107A6000C20088E980830895CF93DF9389E794E08B
:107A7000EFD0882309F49CC08091C100807609F082
:107A80007DC021E044E164E371E089E794E02FD117
:107A900080913601853008F488C0D091350180E0AE
:107AA00090E0C0E00BC02C2F2350223030F0EC2FA0
:107AB000F0E0EC5CFE4F60817FD0CF5F209136011B
:107AC000C21788F3809337019093380110924901CF
:107AD00030915E0120915F0180913501EFE0F7E286
:107AE0003197F1F700C000009091490191113FC01A
:107AF000F8949BB1997F9BB9519A9091C100977F5F
:107B00009093C1001092480178949CE2F2E4FA95B7
:107B1000F1F700C0489B11C09150C1F7932F920F0D
:107B20008F702AE0929F800D112490E009C042E4FA
:107B30004A95F1F700C0489902C0519818C09F5F5C
:107B40009813F5CF80E0A8DE811111C0C8E08D2F19
:107B50008170A2DED69581110AC0C150C1F781E0C3
:107B60009BDE811104C081E097DE882349F080917B
:107B70005E01882319F0815080935E0181E019C075
:107B800010923301F89451988091C10088608093DD
:107B9000C1008091C00080648093C0005A9A809197
:107BA000C10080628093C100789489E794E0EED0B0
:107BB00080E0DF91CF910895292F26279295907F1D
:107BC000382F32953F70932B8295807F22952F70AE
:107BD00030E0F901EF5DFE4F40819427F901EF5E3F
:107BE000FE4F20818227292F229526279295907F6C
:107BF000582F52955F70592B482F4295407F2F7018
:107C000030E0F901EF5DFE4F6081952F962780E00F
:107C1000F901EF5EFE4F208142279C01240F311DA8
:107C2000C9010895CF93FC01CB01CFB7F8946383CA
:107C30009483458311821082128254E1459F900102
:107C40001124A90160E070E0D6D0CFBFCF91089594
:107C5000FC018281882311F0858108952FB7F89463
:107C600080819181891B6581A8D0892F2FBF0895BC
:107C7000EF92FF920F931F93CF93DF93EC018A81D2
:107C800081112DC0453108F044E188810B811C81B0
:107C900094E1899F000D111D1124E42EF12C50E078
:107CA000C801A0D024E130E02E193F090E0D1F1DA0
:107CB000A90160E070E0C8019ED088818F5F888351
:107CC0009D81891708F018828FB7F89428819981CF
:107CD000291302C091E09A838FBF81E001C080E048
:107CE000DF91CF911F910F91FF90EF900895EF9248
:107CF000FF920F931F93CF93DF93EC01F62E072F84
:107D0000142FE22E50E060E070E08F2D902F73D0A2
:107D1000CE019EDF882381F1EB81FC818981DF0127
:107D200094E1899FA00DB11D112412968C91181712
:107D300048F08981DF0194E1899FA00DB11D1124D4
:107D400012961C91898194E1899FE00DF11D112407
:107D5000412F50E0BF018F2D902F44D0E1100EC075
:107D60009FB7F89489818F5F89832D81821708F0EE
:107D700019821A829FBF02C080E001C081E0DF91BA
:107D8000CF911F910F91FF90EF900895CF93DF93C4
:107D9000EC015EDF882369F09FB7F89489818F5FDB
:107DA00089832D81821708F019821A829FBF81E092
:107DB00001C080E0DF91CF910895991B79E004C064
:107DC000991F961708F0961B881F7A95C9F780951A
:107DD0000895FB01DC0102C005900D924150504016
:107DE000D8F70895FB01DC0102C001900D924150CB
:107DF0005040D8F70895DC0101C06D9341505040C8
:107E0000E0F70895F999FECF92BD81BDF89A9927C0
:087E100080B50895F894FFCF3E
:107E1800644D52427573426F6F744C6F6164657242
:107E28000000010302070604050E0F0D0C09080ADD
:107E38000B00A0E04060C08020C0602080A000400F
:027E4800E00058
:107E8E001F93CF93DF93CFB7F894F999FECF83E08A
:107E9E00FB0180935700E89507B600FCFDCF80E00C
:107EAE0090E0D1E0DA01A80FB91F1C91FC01E60F9A
:107EBE00F71F11963C9120E0D901A10FB11D0D01C4
:107ECE00D0935700E895112402968038910551F70A
:107EDE0085E0FB0180935700E89507B600FCFDCFC7
:107EEE0081E180935700E895CFBFDF91CF911F912D
:027EFE000895E5
:107F0000637C777BF26B6FC53001672BFED7AB7656
:107F1000CA82C97DFA5947F0ADD4A2AF9CA472C001
:107F2000B7FD9326363FF7CC34A5E5F171D831156E
:107F300004C723C31896059A071280E2EB27B2758F
:107F400009832C1A1B6E5AA0523BD6B329E32F8407
:107F500053D100ED20FCB15B6ACBBE394A4C58CFFF
:107F6000D0EFAAFB434D338545F9027F503C9FA8D3
:107F700051A3408F929D38F5BCB6DA2110FFF3D2A1
:107F8000CD0C13EC5F974417C4A77E3D645D197355
:107F900060814FDC222A908846EEB814DE5E0BDB4F
:107FA000E0323A0A4906245CC2D3AC629195E47986
:107FB000E7C8376D8DD54EA96C56F4EA657AAE08E0
:107FC000BA78252E1CA6B4C6E8DD741F4BBD8B8A7B
:107FD000703EB5664803F60E613557B986C11D9EE1
:107FE000E1F8981169D98E949B1E87E9CE5528DF58
:107FF0008CA1890DBFE6426841992D0FB054BB1684
:040000030000700089
:00000001FF
