:1070000006C0BDC14AC132C044C12EC0CDC1112489
:107010001FBECFEFD8E0DEBFCDBF11E0A0E0B1E0F2
:10702000E6EFFDE702C005900D92A232B107D9F755
:1070300014E0A2E2B1E001C01D92AF36B107E1F762
:1070400076D2D7C6000000003BC41FC1AFC40AC03F
:1070500093C41DC74D52427573426F6F744C6F617C
:10706000646572004EE003C04CE001C04AE02F921C
:107070003F924F925F926F927F928F929F92AF92C8
:10708000BF92CF92DF92EF92FF920F931F93CF9315
:10709000DF938F939F93DB01FC01842FE894819011
:1070A0009190A190B190C190D190E190F190019117
:1070B00011912191319141915191619171919BE196
:1070C000FFE70D9080240D9090240D90A0240D904A
:1070D000B0240D90C0240D90D0240D90E0240D908C
:1070E000F0240D9000250D9010250D9020250D9079
:1070F00030250D9040250D9050250D9060250D9068
:1071000070252EF5FF91EF9181929192A192B1920B
:10711000C192D192E192F192019311932193319313
:107120004193519361937193DF91CF911F910F918F
:10713000FF90EF90DF90CF90BF90AF909F908F9097
:107140007F906F905F904F903F902F9008958A9519
:1071500009F46894E82D8490EC2DC490E02F0491FC
:10716000E42F4491E92D2490ED2D9490E12FD490BB
:10717000E52F1491522DEA2D2490EE2D3490E22F1C
:10718000A490E62FE490222D632DEB2D2490E72F81
:10719000B490E32F7491EF2D3491F22C0EF491CF33
:1071A0000A2C0B24402C282C89240824880C08F451
:1071B000892680248224392C3A24330C08F4392679
:1071C00030249324440C08F449264024A4242B247E
:1071D000220C08F429262024B2240E2C0F24402C43
:1071E0002C2CCD240C24CC0C08F4C926C024C22499
:1071F0003D2C3E24330C08F439263024D324440C8F
:1072000008F449264024E4242F24220C08F42926DB
:107210002024F224022E0326402C202E01270026B3
:10722000000F08F4092700250225312E3226330CE1
:1072300008F4392630241325440C08F44926402448
:1072400024252326220C08F4292620243225062E64
:107250000726402C242E45270426440F08F44927EE
:1072600040254225352E3626330C08F439263024A5
:107270005325440C08F44926402464252726220C73
:1072800008F42926202472251CCFAB0171E060E0B0
:1072900007C0AB0170E060EC03C0AB01772760E88A
:1072A000EF92FF920F931F93CF93DF93FA01EA01BE
:1072B000DC017695679566956695262F0D9001926F
:1072C0002A95E1F76695669563FB362F762F795FF1
:1072D000770F770FDF011497262FE0E0FFE77F019C
:1072E00011E04D915D918D919D913217B1F05EF558
:1072F000022F0770043039F5F701E40FF11D4491B6
:10730000F701E50FF11D5491F701E80FF11D84918C
:10731000F701E90FF11D949116C0360FF701E40F44
:10732000F11D0491F701E50FF11D4491F701E80FFC
:10733000F11D5491F701E90FF11D8491902F412720
:10734000110F08F41BE1FD01099004260192099038
:1073500005260192099008260192099009260192BA
:107360002395271709F0BDCFE894DF91CF911F91A6
:107370000F91FF90EF900895FC018491089582E0B1
:107380000895EEEFFFE6259134912F3E8FE6380702
:1073900010F020E030E0C901089540E150E06EEEC9
:1073A0007FE683ED93E004C53F924F925F926F9228
:1073B0007F928F929F92AF92BF92CF92DF92EF9285
:1073C000FF920F931F93CF93DF93CDB7DEB7C05BD0
:1073D000D1090FB6F894DEBF0FBECDBF7C01CB0143
:1073E0006A014901AA24A394B12CAC0EBD1EB501BB
:1073F00054DF80E1F70111928A95E9F7F701D18214
:10740000C082B501C70132DE5A2C4B2C1EC0F301DD
:107410003080C501800F911FF40109958325F30188
:1074200081933F01FFEFAF1ABF0A81E0C81AD1086C
:10743000E0E1AE16B10419F0C114D10441F7005FC8
:107440001F4F652D742DC70111DEC114D10421F029
:107450003701A12CB12CDBCFC055DF4F0FB6F8940C
:10746000DEBF0FBECDBFDF91CF911F910F91FF9077
:10747000EF90DF90CF90BF90AF909F908F907F90D4
:107480006F905F904F903F900895FC0104C08491ED
:107490008F3F39F43196EE3E8FE6F807C0F380E077
:1074A000089581E00895EF92FF920F931F93CF9379
:1074B000DF93CDB7DEB7A0970FB6F894DEBF0FBE4F
:1074C000CDBF40E150E064E570E7CE01019670D495
:1074D00058DF7C0162DFC701D8DF882311F081E02B
:1074E00019C000E010E02CEB39E3A701BE016F5F8B
:1074F0007F4FCE01419658DFFE017196A3EDB3E0B8
:10750000CE01819631912D913213E9CFE817F90719
:10751000C9F780E0A0960FB6F894DEBF0FBECDBFCE
:10752000DF91CF911F910F91FF90EF900895CF932E
:10753000DF93CDB7DEB7A8970FB6F894DEBF0FBEC6
:10754000CDBF8FEF8BB988B985B981E085BF82E067
:1075500085BFA895809160008861809360008EE06F
:1075600080936000A89580E090E03BD48093D203A4
:1075700081508E3F18F083E08093D20348E060E5AD
:1075800071E089E694E03DD348E162EF71E083E683
:1075900094E037D342D278948FEF8E8BDD24D3944E
:1075A0008E01055E1F4FBB24B3944AC0A89583E6A5
:1075B00094E03DD3882309F444C120E044E1BE01B6
:1075C0006B5E7F4F83E694E081D3882379F39091BB
:1075D000D2038E89891751F38D898F3F89F09813D3
:1075E000E5CF0EC02A2D2350223040F0E5E1F0E037
:1075F000EC0FFD1FEA0DF11D6081CDD2A39403C0F5
:10760000A12C80E090E06F89A61660F3492F5527E2
:10761000298D30E04217530749F69927288D30E02D
:107620008217930709F0C2CF8A8D813429F481E64D
:107630008E8386E08B8316C0813221F5B0922201C1
:1076400088E08B8380E48E83E1E08091F0018F3FBE
:1076500009F0E0E0EF83F0E0E051FE4F80818887A1
:1076600056E6C52E8E8989838091D2038A834B8109
:10767000BE016F5F7F4F89E694E0E9D2EE24E39488
:10768000F12C94CF2091D2039D8929138FCF84347C
:10769000C1F5643109F08ACFAFA02AE02A1508F4B9
:1076A00085CF34EF4A2D3403C00111248D382FEFDC
:1076B00092071CF480589F4F02C08CE090E04CE091
:1076C000A49E900111242D513C4FAC01B801C90179
:1076D00078D3EA2DE695E695E695F0E0E051FE4F89
:1076E0008A2D8770970102C0220F331F8A95E2F717
:1076F000C9019081982B908388A5882309F456CFDF
:107700009FCF8634A9F51092F0011092F101CE823C
:10771000673041F46B8D40E850E070E083EE93E019
:1077200059D387CF6A3009F041CF6B8D7C8D4D8D59
:107730008E8D813808F080E8E42FF0E020E830E01A
:10774000281B31092E173F0714F440E8481BE42F8B
:10775000F0E02EEE3FE6261B370B2E173F0710F406
:107760004EEE461B90E050E08D519C4F21D361CFEF
:10777000833281F4683009F019CF6B8D7C8D80E005
:1077800090E043EE53E083D31092F0011092F101A8
:1077900084E24ECF833511F581E18B8383E78E83BD
:1077A000F0DD7C0180DE882319F030E8A32E01C0D3
:1077B000A12CC7016ADE91E0811101C090E0A92AE5
:1077C000AF82E886F986E3EDF3E0DE011A96819157
:1077D0008D9333E0EB3DF307D1F744CF8635B1F419
:1077E0002FE02B8386E78E8381E28F8382E0888778
:1077F00080E890E09A87898780E090E79C878B8774
:107800008EE18D8785E98E872F872CCF883509F00B
:10781000CDCE673041F48B8D882329F01092220160
:1078200010920001C3CEF894A89584B7877F84BFD7
:107830008091600088618093600088E080936000A0
:10784000FFCF89E694E0F3D1882311F004D1AECEC6
:1078500080910001882351F08150809300018FE4D2
:1078600093EC0197F1F700C00000A0CE80912201B7
:1078700081119CCE18DE811199CEF894D5BE15BE2B
:107880000C94000093CEF894882311F05A9801C00C
:107890005A9A90E020E00BC0933048F0489921E0DC
:1078A000281729F05A985198789481E0089535E87E
:1078B0003A95F1F700009F5F9A3071F780E00895E4
:1078C0001F920F920FB60F9211242F933F934F9355
:1078D0005F936F937F938F939F93AF93BF93EF9338
:1078E000FF9381E0809339018091C000887139F065
:1078F0008091C60080933801109238012CC080918D
:1079000038019091C600E82FF0E0E65CFE4F9083CE
:107910008F5F8093380180913801863098F04091D4
:10792000380180913C0148130DC010923801453157
:1079300008F044E16AE371E083E694E088D11092B4
:10794000390109C080913801853128F080913801D2
:10795000815080933801FF91EF91BF91AF919F913A
:107960008F917F916F915F914F913F912F910F90E8
:107970000FBE0F901F9018951F920F920FB60F9287
:1079800011248F93EF93FF935A98E1ECF0E08081FC
:1079900087718068808386E080934E01FF91EF912C
:1079A0008F910F900FBE0F901F9018951F920F92FE
:1079B0000FB60F9211248F939F93EF93FF938091B3
:1079C0002301E82FF0E0EC5DFE4F90819093C6001C
:1079D0008F5F8093230180912301843130F4909153
:1079E00026018091230198130FC08091C00080640C
:1079F0008093C0008091C1008F7D8093C1008091F1
:107A0000C10080648093C100FF91EF919F918F919D
:107A10000F900FBE0F901F901895529A5A988AB1E6
:107A20008C7F8AB9109223011092390126E02093AD
:107A30004E0120934F0185E190E09093C500809323
:107A4000C4001092C000E1ECF0E010822093C2006C
:107A500088E980830895CF93DF9389E694E0E7D0A7
:107A6000882309F494C08091C100807609F075C024
:107A700021E044E164E271E089E694E027D180915D
:107A80002601853008F480C0D091250180E090E087
:107A9000C0E00BC02C2F2350223030F0EC2FF0E050
:107AA000EC5DFE4F608177D0CF5F20912601C21739
:107AB00088F3809327019093280110923901309127
:107AC0004E0120914F0180912501EFE0F7E23197BF
:107AD000F1F700C0000090913901911137C0F8947E
:107AE0009BB1997F9BB9519A9091C100977F9093D8
:107AF000C1001092380178948F708A5E230F922F04
:107B0000990F990F920F890F90E009C0F5E8FA9547
:107B1000F1F70000489902C0519818C09F5F981370
:107B2000F5CF80E0B0DE811111C0C8E08D2F8170EB
:107B3000AADED69581110AC0C150C1F781E0A3DE4B
:107B4000811104C081E09FDE882349F080914E01BD
:107B5000882319F0815080934E0181E019C0109262
:107B60002301F89451988091C10088608093C100EE
:107B70008091C00080648093C0005A9A8091C100B7
:107B800080628093C100789489E694E0EED080E032
:107B9000DF91CF910895292F26279295907F382F36
:107BA00032953F70932B8295807F22952F7030E025
:107BB000F901EF5EFE4F40819427F901EF5FFE4F20
:107BC00020818227292F229526279295907F582F52
:107BD00052955F70592B482F4295407F2F7030E0AF
:107BE000F901EF5EFE4F6081952F962780E0F90145
:107BF000EF5FFE4F208142279C01240F311DC901F8
:107C00000895CF93FC01CB01CFB7F894638394839D
:107C1000458311821082128254E1459F9001112404
:107C2000A90160E070E0D6D0CFBFCF910895FC01EC
:107C30008281882311F0858108952FB7F89480817F
:107C40009181891B6581A8D0892F2FBF0895EF925C
:107C5000FF920F931F93CF93DF93EC018A818111E1
:107C60002DC0453108F044E188810B811C8194E1ED
:107C7000899F000D111D1124E42EF12C50E0C80144
:107C8000A0D024E130E02E193F090E0D1F1DA901DF
:107C900060E070E0C8019ED088818F5F88839D81FD
:107CA000891708F018828FB7F894288199812913D1
:107CB00002C091E09A838FBF81E001C080E0DF9134
:107CC000CF911F910F91FF90EF900895EF92FF9247
:107CD0000F931F93CF93DF93EC01F62E072F142FF2
:107CE000E22E50E060E070E08F2D902F73D0CE0137
:107CF0009EDF882381F1EB81FC818981DF0194E1A2
:107D0000899FA00DB11D112412968C91181748F06F
:107D10008981DF0194E1899FA00DB11D1124129684
:107D20001C91898194E1899FE00DF11D1124412F5F
:107D300050E0BF018F2D902F44D0E1100EC09FB7AF
:107D4000F89489818F5F89832D81821708F01982C9
:107D50001A829FBF02C080E001C081E0DF91CF9115
:107D60001F910F91FF90EF900895CF93DF93EC0157
:107D70005EDF882369F09FB7F89489818F5F8983DC
:107D80002D81821708F019821A829FBF81E001C0FD
:107D900080E0DF91CF910895991B79E004C0991F8D
:107DA000961708F0961B881F7A95C9F78095089555
:107DB000FB01DC0102C005900D9241505040D8F704
:107DC0000895FB01DC0102C001900D92415050402A
:107DD000D8F70895DC0101C06D9341505040E0F7A1
:107DE0000895F999FECF92BD81BDF89A992780B583
:067DF0000895F894FFCF96
:107DF6006400010302070604050E0F0D0C09080AAC
:107E06000B00A0E04060C08020C0602080A0004041
:027E1600E0008A
:107E8E001F93CF93DF93CFB7F894F999FECF83E08A
:107E9E00FB0180935700E89507B600FCFDCF80E00C
:107EAE0090E0D1E0DA01A80FB91F1C91FC01E60F9A
:107EBE00F71F11963C9120E0D901A10FB11D0D01C4
:107ECE00D0935700E895112402968038910551F70A
:107EDE0085E0FB0180935700E89507B600FCFDCFC7
:107EEE0081E180935700E895CFBFDF91CF911F912D
:027EFE000895E5
:107F0000637C777BF26B6FC53001672BFED7AB7656
:107F1000CA82C97DFA5947F0ADD4A2AF9CA472C001
:107F2000B7FD9326363FF7CC34A5E5F171D831156E
:107F300004C723C31896059A071280E2EB27B2758F
:107F400009832C1A1B6E5AA0523BD6B329E32F8407
:107F500053D100ED20FCB15B6ACBBE394A4C58CFFF
:107F6000D0EFAAFB434D338545F9027F503C9FA8D3
:107F700051A3408F929D38F5BCB6DA2110FFF3D2A1
:107F8000CD0C13EC5F974417C4A77E3D645D197355
:107F900060814FDC222A908846EEB814DE5E0BDB4F
:107FA000E0323A0A4906245CC2D3AC629195E47986
:107FB000E7C8376D8DD54EA96C56F4EA657AAE08E0
:107FC000BA78252E1CA6B4C6E8DD741F4BBD8B8A7B
:107FD000703EB5664803F60E613557B986C11D9EE1
:107FE000E1F8981169D98E949B1E87E9CE5528DF58
:107FF0008CA1890DBFE6426841992D0FB054BB1684
:040000030000700089
:00000001FF
